{
  "_format": "hh-sol-artifact-1",
  "contractName": "JokePortal",
  "sourceName": "contracts/JokePortal.sol",
  "abi": [
    {
      "inputs": [],
      "stateMutability": "payable",
      "type": "constructor"
    },
    {
      "anonymous": false,
      "inputs": [
        {
          "indexed": true,
          "internalType": "address",
          "name": "from",
          "type": "address"
        },
        {
          "indexed": false,
          "internalType": "uint256",
          "name": "timestamp",
          "type": "uint256"
        },
        {
          "indexed": false,
          "internalType": "string",
          "name": "message",
          "type": "string"
        }
      ],
      "name": "NewJoke",
      "type": "event"
    },
    {
      "inputs": [],
      "name": "getStory",
      "outputs": [
        {
          "components": [
            {
              "internalType": "address",
              "name": "teller",
              "type": "address"
            },
            {
              "internalType": "string",
              "name": "message",
              "type": "string"
            },
            {
              "internalType": "uint256",
              "name": "timestamp",
              "type": "uint256"
            }
          ],
          "internalType": "struct JokePortal.Story[]",
          "name": "",
          "type": "tuple[]"
        }
      ],
      "stateMutability": "view",
      "type": "function"
    },
    {
      "inputs": [],
      "name": "getTotalJokes",
      "outputs": [
        {
          "internalType": "uint256",
          "name": "",
          "type": "uint256"
        }
      ],
      "stateMutability": "view",
      "type": "function"
    },
    {
      "inputs": [
        {
          "internalType": "address",
          "name": "",
          "type": "address"
        }
      ],
      "name": "lastJokeAt",
      "outputs": [
        {
          "internalType": "uint256",
          "name": "",
          "type": "uint256"
        }
      ],
      "stateMutability": "view",
      "type": "function"
    },
    {
      "inputs": [
        {
          "internalType": "string",
          "name": "_joke",
          "type": "string"
        }
      ],
      "name": "tellAJoke",
      "outputs": [],
      "stateMutability": "nonpayable",
      "type": "function"
    }
  ],
  "bytecode": "0x6080604052620000336040518060600160405280602c8152602001620016af602c91396200014260201b620006881760201c565b600360405180606001604052803373ffffffffffffffffffffffffffffffffffffffff1681526020016040518060600160405280602181526020016200168e60219139815260200142815250908060018154018082558091505060019003906000526020600020906003020160009091909190915060008201518160000160006101000a81548173ffffffffffffffffffffffffffffffffffffffff021916908373ffffffffffffffffffffffffffffffffffffffff16021790555060208201518160010190805190602001906200010d9291906200020e565b50604082015181600201555050606444426200012a91906200033f565b62000136919062000412565b600181905550620004e8565b620001e281604051602401620001599190620002ff565b6040516020818303038152906040527f41304fac000000000000000000000000000000000000000000000000000000007bffffffffffffffffffffffffffffffffffffffffffffffffffffffff19166020820180517bffffffffffffffffffffffffffffffffffffffffffffffffffffffff8381831617835250505050620001e560201b60201c565b50565b60008151905060006a636f6e736f6c652e6c6f679050602083016000808483855afa5050505050565b8280546200021c90620003dc565b90600052602060002090601f0160209004810192826200024057600085556200028c565b82601f106200025b57805160ff19168380011785556200028c565b828001600101855582156200028c579182015b828111156200028b5782518255916020019190600101906200026e565b5b5090506200029b91906200029f565b5090565b5b80821115620002ba576000816000905550600101620002a0565b5090565b6000620002cb8262000323565b620002d781856200032e565b9350620002e9818560208601620003a6565b620002f481620004d7565b840191505092915050565b600060208201905081810360008301526200031b8184620002be565b905092915050565b600081519050919050565b600082825260208201905092915050565b60006200034c826200039c565b915062000359836200039c565b9250827fffffffffffffffffffffffffffffffffffffffffffffffffffffffffffffffff038211156200039157620003906200044a565b5b828201905092915050565b6000819050919050565b60005b83811015620003c6578082015181840152602081019050620003a9565b83811115620003d6576000848401525b50505050565b60006002820490506001821680620003f557607f821691505b602082108114156200040c576200040b620004a8565b5b50919050565b60006200041f826200039c565b91506200042c836200039c565b9250826200043f576200043e62000479565b5b828206905092915050565b7f4e487b7100000000000000000000000000000000000000000000000000000000600052601160045260246000fd5b7f4e487b7100000000000000000000000000000000000000000000000000000000600052601260045260246000fd5b7f4e487b7100000000000000000000000000000000000000000000000000000000600052602260045260246000fd5b6000601f19601f8301169050919050565b61119680620004f86000396000f3fe608060405234801561001057600080fd5b506004361061004c5760003560e01c8063597aeede1461005157806379c3de3e146100815780639744bce11461009f5780639e599c04146100bb575b600080fd5b61006b600480360381019061006691906109a2565b6100d9565b6040516100789190610d38565b60405180910390f35b6100896100f1565b6040516100969190610c34565b60405180910390f35b6100b960048036038101906100b491906109cb565b610242565b005b6100c361063d565b6040516100d09190610d38565b60405180910390f35b60026020528060005260406000206000915090505481565b60606003805480602002602001604051908101604052809291908181526020016000905b8282101561023957838290600052602060002090600302016040518060600160405290816000820160009054906101000a900473ffffffffffffffffffffffffffffffffffffffff1673ffffffffffffffffffffffffffffffffffffffff1673ffffffffffffffffffffffffffffffffffffffff16815260200160018201805461019e90610f1e565b80601f01602080910402602001604051908101604052809291908181526020018280546101ca90610f1e565b80156102175780601f106101ec57610100808354040283529160200191610217565b820191906000526020600020905b8154815290600101906020018083116101fa57829003601f168201915b5050505050815260200160028201548152505081526020019060010190610115565b50505050905090565b42610384600260003373ffffffffffffffffffffffffffffffffffffffff1673ffffffffffffffffffffffffffffffffffffffff168152602001908152602001600020546102909190610e4a565b106102d0576040517f08c379a00000000000000000000000000000000000000000000000000000000081526004016102c790610d18565b60405180910390fd5b42600260003373ffffffffffffffffffffffffffffffffffffffff1673ffffffffffffffffffffffffffffffffffffffff1681526020019081526020016000208190555060016000808282546103269190610e4a565b9250508190555061036c6040518060400160405280601381526020017f25732068617320746f6c642061206a6f6b65210000000000000000000000000081525033610721565b600360405180606001604052803373ffffffffffffffffffffffffffffffffffffffff16815260200183815260200142815250908060018154018082558091505060019003906000526020600020906003020160009091909190915060008201518160000160006101000a81548173ffffffffffffffffffffffffffffffffffffffff021916908373ffffffffffffffffffffffffffffffffffffffff160217905550602082015181600101908051906020019061042b929190610882565b50604082015181600201555050606460015442446104499190610e4a565b6104539190610e4a565b61045d9190610f81565b6001819055506104a46040518060400160405280601781526020017f52616e646f6d20736565642067656e6572617465643a200000000000000000008152506001546107bd565b6032600154116105ea576104ed6040518060400160405280600781526020017f257320776f6e210000000000000000000000000000000000000000000000000081525033610721565b6000655af3107a400090504781111561053b576040517f08c379a000000000000000000000000000000000000000000000000000000000815260040161053290610cd8565b60405180910390fd5b60003373ffffffffffffffffffffffffffffffffffffffff168260405161056190610c1f565b60006040518083038185875af1925050503d806000811461059e576040519150601f19603f3d011682016040523d82523d6000602084013e6105a3565b606091505b50509050806105e7576040517f08c379a00000000000000000000000000000000000000000000000000000000081526004016105de90610cf8565b60405180910390fd5b50505b3373ffffffffffffffffffffffffffffffffffffffff167f8bd8a26db58e8d8c2f520500e46ebd47a1c9baa42722d81ed6c583635d21298e4283604051610632929190610d53565b60405180910390a250565b60006106806040518060400160405280601781526020017f5765206861766520256420746f74616c206a6f6b6573210000000000000000008152506000546107bd565b600054905090565b61071e8160405160240161069c9190610c56565b6040516020818303038152906040527f41304fac000000000000000000000000000000000000000000000000000000007bffffffffffffffffffffffffffffffffffffffffffffffffffffffff19166020820180517bffffffffffffffffffffffffffffffffffffffffffffffffffffffff8381831617835250505050610859565b50565b6107b98282604051602401610737929190610c78565b6040516020818303038152906040527f319af333000000000000000000000000000000000000000000000000000000007bffffffffffffffffffffffffffffffffffffffffffffffffffffffff19166020820180517bffffffffffffffffffffffffffffffffffffffffffffffffffffffff8381831617835250505050610859565b5050565b61085582826040516024016107d3929190610ca8565b6040516020818303038152906040527f9710a9d0000000000000000000000000000000000000000000000000000000007bffffffffffffffffffffffffffffffffffffffffffffffffffffffff19166020820180517bffffffffffffffffffffffffffffffffffffffffffffffffffffffff8381831617835250505050610859565b5050565b60008151905060006a636f6e736f6c652e6c6f679050602083016000808483855afa5050505050565b82805461088e90610f1e565b90600052602060002090601f0160209004810192826108b057600085556108f7565b82601f106108c957805160ff19168380011785556108f7565b828001600101855582156108f7579182015b828111156108f65782518255916020019190600101906108db565b5b5090506109049190610908565b5090565b5b80821115610921576000816000905550600101610909565b5090565b600061093861093384610da8565b610d83565b90508281526020810184848401111561095057600080fd5b61095b848285610edc565b509392505050565b60008135905061097281611149565b92915050565b600082601f83011261098957600080fd5b8135610999848260208601610925565b91505092915050565b6000602082840312156109b457600080fd5b60006109c284828501610963565b91505092915050565b6000602082840312156109dd57600080fd5b600082013567ffffffffffffffff8111156109f757600080fd5b610a0384828501610978565b91505092915050565b6000610a188383610bb1565b905092915050565b610a2981610ea0565b82525050565b610a3881610ea0565b82525050565b6000610a4982610de9565b610a538185610e0c565b935083602082028501610a6585610dd9565b8060005b85811015610aa15784840389528151610a828582610a0c565b9450610a8d83610dff565b925060208a01995050600181019050610a69565b50829750879550505050505092915050565b6000610abe82610df4565b610ac88185610e28565b9350610ad8818560208601610eeb565b610ae18161106e565b840191505092915050565b6000610af782610df4565b610b018185610e39565b9350610b11818560208601610eeb565b610b1a8161106e565b840191505092915050565b6000610b32603483610e39565b9150610b3d8261107f565b604082019050919050565b6000610b55602783610e39565b9150610b60826110ce565b604082019050919050565b6000610b78600083610e1d565b9150610b838261111d565b600082019050919050565b6000610b9b600883610e39565b9150610ba682611120565b602082019050919050565b6000606083016000830151610bc96000860182610a20565b5060208301518482036020860152610be18282610ab3565b9150506040830151610bf66040860182610c01565b508091505092915050565b610c0a81610ed2565b82525050565b610c1981610ed2565b82525050565b6000610c2a82610b6b565b9150819050919050565b60006020820190508181036000830152610c4e8184610a3e565b905092915050565b60006020820190508181036000830152610c708184610aec565b905092915050565b60006040820190508181036000830152610c928185610aec565b9050610ca16020830184610a2f565b9392505050565b60006040820190508181036000830152610cc28185610aec565b9050610cd16020830184610c10565b9392505050565b60006020820190508181036000830152610cf181610b25565b9050919050565b60006020820190508181036000830152610d1181610b48565b9050919050565b60006020820190508181036000830152610d3181610b8e565b9050919050565b6000602082019050610d4d6000830184610c10565b92915050565b6000604082019050610d686000830185610c10565b8181036020830152610d7a8184610aec565b90509392505050565b6000610d8d610d9e565b9050610d998282610f50565b919050565b6000604051905090565b600067ffffffffffffffff821115610dc357610dc261103f565b5b610dcc8261106e565b9050602081019050919050565b6000819050602082019050919050565b600081519050919050565b600081519050919050565b6000602082019050919050565b600082825260208201905092915050565b600081905092915050565b600082825260208201905092915050565b600082825260208201905092915050565b6000610e5582610ed2565b9150610e6083610ed2565b9250827fffffffffffffffffffffffffffffffffffffffffffffffffffffffffffffffff03821115610e9557610e94610fb2565b5b828201905092915050565b6000610eab82610eb2565b9050919050565b600073ffffffffffffffffffffffffffffffffffffffff82169050919050565b6000819050919050565b82818337600083830152505050565b60005b83811015610f09578082015181840152602081019050610eee565b83811115610f18576000848401525b50505050565b60006002820490506001821680610f3657607f821691505b60208210811415610f4a57610f49611010565b5b50919050565b610f598261106e565b810181811067ffffffffffffffff82111715610f7857610f7761103f565b5b80604052505050565b6000610f8c82610ed2565b9150610f9783610ed2565b925082610fa757610fa6610fe1565b5b828206905092915050565b7f4e487b7100000000000000000000000000000000000000000000000000000000600052601160045260246000fd5b7f4e487b7100000000000000000000000000000000000000000000000000000000600052601260045260246000fd5b7f4e487b7100000000000000000000000000000000000000000000000000000000600052602260045260246000fd5b7f4e487b7100000000000000000000000000000000000000000000000000000000600052604160045260246000fd5b6000601f19601f8301169050919050565b7f547279696e6720746f207769746864726177206d6f7265206d6f6e657920746860008201527f616e2074686520636f6e7472616374206861732e000000000000000000000000602082015250565b7f4661696c656420746f207769746864726177206d6f6e65792066726f6d20636f60008201527f6e74726163742e00000000000000000000000000000000000000000000000000602082015250565b50565b7f576169742031356d000000000000000000000000000000000000000000000000600082015250565b61115281610ea0565b811461115d57600080fd5b5056fea2646970667358221220ce59dd83ffe55df31569b5aabbf33498ea019da3fa54d1111cb821bab0fb5c9264736f6c634300080400334920616d20626f7265642120506c656173652074656c6c206d652061206a6f6b653320322031205a65726f212121204c657427732064616e63652120576520617265206f6e206c696e65203a29",
  "linkReferences": {},
  "deployedLinkReferences": {}
}