{
  "_format": "hh-sol-artifact-1",
  "contractName": "JokePortal",
  "sourceName": "contracts/JokePortal.sol",
  "abi": [
    {
      "inputs": [],
      "stateMutability": "nonpayable",
      "type": "constructor"
    },
    {
      "inputs": [],
      "name": "getLastJoke",
      "outputs": [
        {
          "internalType": "string",
          "name": "",
          "type": "string"
        }
      ],
      "stateMutability": "view",
      "type": "function"
    },
    {
      "inputs": [],
      "name": "getTotalJokes",
      "outputs": [
        {
          "internalType": "uint256",
          "name": "",
          "type": "uint256"
        }
      ],
      "stateMutability": "view",
      "type": "function"
    },
    {
      "inputs": [
        {
          "internalType": "string",
          "name": "_joke",
          "type": "string"
        }
      ],
      "name": "tellAJoke",
      "outputs": [],
      "stateMutability": "nonpayable",
      "type": "function"
    }
  ],
  "bytecode": "0x60806040523480156200001157600080fd5b50620000416040518060600160405280602c815260200162000e3b602c91396200012160201b620002b61760201c565b60405180606001604052806021815260200162000e1a602191396001908051906020019062000072929190620001ed565b506200011b60018054620000869062000354565b80601f0160208091040260200160405190810160405280929190818152602001828054620000b49062000354565b8015620001055780601f10620000d95761010080835404028352916020019162000105565b820191906000526020600020905b815481529060010190602001808311620000e757829003601f168201915b50505050506200012160201b620002b61760201c565b620003ca565b620001c181604051602401620001389190620002de565b6040516020818303038152906040527f41304fac000000000000000000000000000000000000000000000000000000007bffffffffffffffffffffffffffffffffffffffffffffffffffffffff19166020820180517bffffffffffffffffffffffffffffffffffffffffffffffffffffffff8381831617835250505050620001c460201b60201c565b50565b60008151905060006a636f6e736f6c652e6c6f679050602083016000808483855afa5050505050565b828054620001fb9062000354565b90600052602060002090601f0160209004810192826200021f57600085556200026b565b82601f106200023a57805160ff19168380011785556200026b565b828001600101855582156200026b579182015b828111156200026a5782518255916020019190600101906200024d565b5b5090506200027a91906200027e565b5090565b5b80821115620002995760008160009055506001016200027f565b5090565b6000620002aa8262000302565b620002b681856200030d565b9350620002c88185602086016200031e565b620002d381620003b9565b840191505092915050565b60006020820190508181036000830152620002fa81846200029d565b905092915050565b600081519050919050565b600082825260208201905092915050565b60005b838110156200033e57808201518184015260208101905062000321565b838111156200034e576000848401525b50505050565b600060028204905060018216806200036d57607f821691505b602082108114156200038457620003836200038a565b5b50919050565b7f4e487b7100000000000000000000000000000000000000000000000000000000600052602260045260246000fd5b6000601f19601f8301169050919050565b610a4080620003da6000396000f3fe608060405234801561001057600080fd5b50600436106100415760003560e01c80639744bce1146100465780639941d098146100625780639e599c0414610080575b600080fd5b610060600480360381019061005b9190610657565b61009e565b005b61006a610110565b60405161007791906106ef565b60405180910390f35b61008861026b565b60405161009591906107a8565b60405180910390f35b60016000808282546100b09190610835565b925050819055506100f66040518060400160405280601381526020017f25732068617320746f6c642061206a6f6b6521000000000000000000000000008152503361034f565b806001908051906020019061010c92919061054c565b5050565b60606101db6040518060400160405280601d81526020017f6168206168206865726520697320746865206c617374206a6f6b653a200000008152506001805461015890610909565b80601f016020809104026020016040519081016040528092919081815260200182805461018490610909565b80156101d15780601f106101a6576101008083540402835291602001916101d1565b820191906000526020600020905b8154815290600101906020018083116101b457829003601f168201915b50505050506103eb565b600180546101e890610909565b80601f016020809104026020016040519081016040528092919081815260200182805461021490610909565b80156102615780601f1061023657610100808354040283529160200191610261565b820191906000526020600020905b81548152906001019060200180831161024457829003601f168201915b5050505050905090565b60006102ae6040518060400160405280601781526020017f5765206861766520256420746f74616c206a6f6b657321000000000000000000815250600054610487565b600054905090565b61034c816040516024016102ca91906106ef565b6040516020818303038152906040527f41304fac000000000000000000000000000000000000000000000000000000007bffffffffffffffffffffffffffffffffffffffffffffffffffffffff19166020820180517bffffffffffffffffffffffffffffffffffffffffffffffffffffffff8381831617835250505050610523565b50565b6103e78282604051602401610365929190610711565b6040516020818303038152906040527f319af333000000000000000000000000000000000000000000000000000000007bffffffffffffffffffffffffffffffffffffffffffffffffffffffff19166020820180517bffffffffffffffffffffffffffffffffffffffffffffffffffffffff8381831617835250505050610523565b5050565b6104838282604051602401610401929190610741565b6040516020818303038152906040527f4b5c4277000000000000000000000000000000000000000000000000000000007bffffffffffffffffffffffffffffffffffffffffffffffffffffffff19166020820180517bffffffffffffffffffffffffffffffffffffffffffffffffffffffff8381831617835250505050610523565b5050565b61051f828260405160240161049d929190610778565b6040516020818303038152906040527f9710a9d0000000000000000000000000000000000000000000000000000000007bffffffffffffffffffffffffffffffffffffffffffffffffffffffff19166020820180517bffffffffffffffffffffffffffffffffffffffffffffffffffffffff8381831617835250505050610523565b5050565b60008151905060006a636f6e736f6c652e6c6f679050602083016000808483855afa5050505050565b82805461055890610909565b90600052602060002090601f01602090048101928261057a57600085556105c1565b82601f1061059357805160ff19168380011785556105c1565b828001600101855582156105c1579182015b828111156105c05782518255916020019190600101906105a5565b5b5090506105ce91906105d2565b5090565b5b808211156105eb5760008160009055506001016105d3565b5090565b60006106026105fd846107e8565b6107c3565b90508281526020810184848401111561061a57600080fd5b6106258482856108c7565b509392505050565b600082601f83011261063e57600080fd5b813561064e8482602086016105ef565b91505092915050565b60006020828403121561066957600080fd5b600082013567ffffffffffffffff81111561068357600080fd5b61068f8482850161062d565b91505092915050565b6106a18161088b565b82525050565b60006106b282610819565b6106bc8185610824565b93506106cc8185602086016108d6565b6106d5816109f9565b840191505092915050565b6106e9816108bd565b82525050565b6000602082019050818103600083015261070981846106a7565b905092915050565b6000604082019050818103600083015261072b81856106a7565b905061073a6020830184610698565b9392505050565b6000604082019050818103600083015261075b81856106a7565b9050818103602083015261076f81846106a7565b90509392505050565b6000604082019050818103600083015261079281856106a7565b90506107a160208301846106e0565b9392505050565b60006020820190506107bd60008301846106e0565b92915050565b60006107cd6107de565b90506107d9828261093b565b919050565b6000604051905090565b600067ffffffffffffffff821115610803576108026109ca565b5b61080c826109f9565b9050602081019050919050565b600081519050919050565b600082825260208201905092915050565b6000610840826108bd565b915061084b836108bd565b9250827fffffffffffffffffffffffffffffffffffffffffffffffffffffffffffffffff038211156108805761087f61096c565b5b828201905092915050565b60006108968261089d565b9050919050565b600073ffffffffffffffffffffffffffffffffffffffff82169050919050565b6000819050919050565b82818337600083830152505050565b60005b838110156108f45780820151818401526020810190506108d9565b83811115610903576000848401525b50505050565b6000600282049050600182168061092157607f821691505b602082108114156109355761093461099b565b5b50919050565b610944826109f9565b810181811067ffffffffffffffff82111715610963576109626109ca565b5b80604052505050565b7f4e487b7100000000000000000000000000000000000000000000000000000000600052601160045260246000fd5b7f4e487b7100000000000000000000000000000000000000000000000000000000600052602260045260246000fd5b7f4e487b7100000000000000000000000000000000000000000000000000000000600052604160045260246000fd5b6000601f19601f830116905091905056fea26469706673582212205228e4540b5af5f17231992a92b087e4bfe30292302bbb77a562c3c2820eea3764736f6c634300080400334920616d20626f7265642120506c656173652074656c6c206d652061206a6f6b653320322031205a65726f212121204c657427732064616e63652120576520617265206f6e206c696e65203a29",
  "linkReferences": {},
  "deployedLinkReferences": {}
}